S0140000524C37385F776966695F73716C2E6D6F74A3
S10700001C1AFFFFC4
S1130004990E990E990E990E990E990E990E990EB0
S11300148D09B508990E990E990E990EBD0C990E79
S1130024990E990E990E990E990E990E990E990E90
S1130034990E990E990E990E990E990E990E990E80
S1130044990E990E990E990E990E990E990E990E70
S1130054990E990E990E990E990E990E990E990E60
S1130064990E990E990E990E990E990E990E990E50
S10F0074990E990E990E990E990E990E92
S10700C0EFFFE00466
S10D00C4000000000000000000002E
S11300D8323031382D30342D313025323032323A05
S11300E833303A3130000100476574202F6265616E
S11300F8722F74696D652E7068703F636F756E74C6
S11301083D3030302673746174653D303031302CA5
S1130118323031382D30342D313125323031303AC6
S113012834303A33390D0A000000000000000000A2
S113013800000000000000000000000000000000B3
S113014800000000000000000000000000000000A3
S11301580000000000000000000000000000000093
S11301680000000000000000000000000000000083
S11301780000000000000000000000000000000073
S11301880000000000000000000000000000000063
S11301980000000000000000000000000000000053
S11301A80000000000000000000000000000000043
S11301B80000000000000000000000000000000033
S11301C80000000000000000000000000000000023
S11301D80000000000000000000000000000000013
S11301E80000000000000000000000000000000003
S11301F800000000000000000000000000000000F3
S113020800000000000000000000000000000000E2
S113021800000000000000000000000000000000D2
S113022800000000000000000000000000000000C2
S113023800000000000000000000000000000000B2
S113024800000000000000000000000000000000A2
S11302580000000000000000000000000000000092
S11302680000000000000000000000000000000082
S11302780000000000000000000000000000000072
S11302880000000000000000000000000000000062
S11302980000000000000000000000000000000052
S11302A80000000000000000000000000000000042
S11302B80000000000000000000000000000000032
S11302C80000000000000000000000000000000022
S11302D800000000000000000000000041542B430F
S10F02E8495053454E443D3036330D0A56
S11302F4C9F0A0FFADF0BDF2DAF2F1480000C9F094
S1130304A1FFADF0BDF4FAF48B9DF26AF280ADF076
S1130314DAF48DF2480000C9F0A4FFADF0BDF4FA9C
S1130324F48B9DF25AF2EFADF0DAF48DF24800004A
S1130334C9F0F300ADF0BDF2DAF2F1480000C9F0FF
S1130344A1FFADF0BDF4FAF48B9DF25AF2FEADF0C8
S1130354DAF48DF2480000D72002C9F0A8FFADF00A
S1130364BDF2FAF28B9DF098011002D7C9F0640033
S1130374ADF0BDF2DAF251F9480000C9F07600ADEF
S1130384F0BDF2DAF2E1480000C9F022FFADF0BD9D
S1130394F2DAF251FF480000C9F024FFADF0BDF2D7
S11303A4DAF251FF480000C9F026FFADF0BDF2DADD
S11303B4F251FF480000D7C9F0F000ADF0BDF4FAE3
S11303C4F48B9DF26AF204ADF0DAF48DF248000085
S11303D400000000C9F02601ADF0BDF2DAF23044A9
S11303E400780000FCED0300D7C9F22401C9F0240D
S11303F401ADF0BDF4FAF4ABBDF06AF003ADF2BDA7
S1130404F4DAF4ADF0780000C9F0E5FFADF0BDF422
S1130414FAF48B9DF26AF201ADF0DAF48DF248003D
S113042400C9F0E1FFADF0BDF4FAF48B9DF25AF289
S1130434FEADF0DAF48DF2480000C9F0E5FFADF04A
S1130444BDF4FAF48B9DF26AF202ADF0DAF48DF2A3
S1130454480000C9F0E1FFADF0BDF4FAF48B9DF25D
S11304645AF2FDADF0DAF48DF2480000C9F0E5FF6C
S1130474ADF0BDF4FAF48B9DF26AF204ADF0DAF453
S11304848DF2480000C9F0E1FFADF0BDF4FAF48B3D
S11304949DF25AF2FBADF0DAF48DF2480000C9F093
S11304A4EDFFADF0BDF4FAF48B9DF26AF201ADF008
S11304B4DAF48DF2480000C9F0E9FFADF0BDF4FAB6
S11304C4F48B9DF26AF201ADF0DAF48DF248000087
S11304D4C9F0EDFFADF0BDF4FAF48B9DF26AF202BB
S11304E4ADF0DAF48DF2480000C9F0E9FFADF0BDD7
S11304F4F4FAF48B9DF26AF202ADF0DAF48DF24868
S11305040000C9F01001ADF0BDF2DAF23022007837
S11305140000C9F01801ADF0BDF4DAF43097807826
S11305240000C9F010FFADF0BDF2DAF230009A78A1
S11305340000C9F27000C9F07000ADF0BDF4FAF423
S11305448B9DF06AF001ADF2BDF4DAF48DF048004D
S113055400C9F00A01ADF0BDF2DAF2300700780008
S113056400C9F01201ADF0BDF4DAF43022017800D0
S113057400C9F01A01ADF0BDF2DAF2309740780008
S113058400C9F012FFADF0BDF4DAF430009A78003B
S113059400C9F22801C9F02801ADF0BDF4FAF4ABA6
S11305A4BDF06AF001ADF2BDF4DAF4ADF078000008
S11305B4C9F23401C9F03401ADF0BDF4FAF4ABBDB1
S11305C4F0ADF2BDF4DAF4ADF0780000C9F22A011A
S11305D4C9F02A01ADF0BDF4FAF4ABBDF06AF00140
S11305E4ADF2BDF4DAF4ADF0780000C9F26100C9EB
S11305F4F06100ADF0BDF4FAF48B9DF05AF0FDAD5A
S1130604F2BDF4DAF48DF0480000C9F221FFC9F018
S113061421FFADF0BDF4FAF48B9DF06AF002ADF263
S1130624BDF4DAF48DF0480000C9F26100C9F06148
S113063400ADF0BDF4FAF48B9DF05AF0FBADF2BDBD
S1130644F4DAF48DF0480000C9F201FFC9F001FFA7
S1130654ADF0BDF4FAF48B9DF06AF004ADF2BDF490
S1130664DAF48DF0480000C9F221FFC9F021FFAD8E
S1130674F0BDF4FAF48B9DF05AF0FBADF2BDF4DA5C
S1130684F48DF0480000D7C9F22801C9F02801AD5F
S1130694F0BDF4FAF4ABBDF06AF001ADF2BDF4DAE6
S11306A4F4ADF0780000C9F22A01C9F02A01ADF0D2
S11306B4BDF4FAF4ABBDF06AF001ADF2BDF4DAF4C2
S11306C4ADF0780000C9F22201C9F02201ADF0BDF9
S11306D4F4FAF4ABBDF06AF003ADF2BDF4DAF4ADB0
S11306E4F0780000C9F0E1FFADF0BDF4FAF48B9D9D
S11306F4F25AF2FEADF0DAF48DF2480000C9F0E1EA
S1130704FFADF0BDF4FAF48B9DF25AF2FDADF0DACC
S1130714F48DF2480000C9F0E5FFADF0BDF4FAF43D
S11307248B9DF25AF2FEADF0DAF48DF2480000C962
S1130734F0E5FFADF0BDF4FAF48B9DF25AF2FDAD91
S1130744F0DAF48DF2480000D7C9F0E5FFADF0BD4E
S1130754F4FAF48B9DF26AF201ADF0DAF48DF24806
S11307640000C9F0E5FFADF0BDF4FAF48B9DF26A24
S1130774F202ADF0DAF48DF2480000C9F22401C9A2
S1130784F02401ADF0BDF4FAF4ABBDF06AF003ADAE
S1130794F2BDF4DAF4ADF0780000C9F22A01C9F02C
S11307A42A01ADF0BDF4FAF4ABBDF05AF0FEADF29B
S11307B4BDF4DAF4ADF0780000C9F0E1FFADF0BDAA
S11307C4F4FAF48B9DF25AF2FEADF0DAF48DF248A9
S11307D40000C9F0E1FFADF0BDF4FAF48B9DF25AC8
S11307E4F2FDADF0DAF48DF2480000D72002F6B839
S11307F400A80844000061E8EC090800308100B84E
S113080400EC1B0800F6BFA8FDA808BDF0BFACFDB2
S1130814A806BDF0BFA6FDA800BDF01002D72002B3
S1130824F6B800A80844000061E8EC3B08003081F5
S113083400B800ECAE0800A806BDF0BFAAFDA808E5
S1130844BDF0BFA4FDC9F0E5FFADF0BDF4FAF48B2F
S11308549DF26AF201ADF0DAF48DF2480000C9F2B7
S113086410FFAFAAFDBDF0BDF4FAF48B9DF0ADF218
S1130874BDF4DAF48DF0480000AFAAFDBDF0A6F093
S1130884ADF0BFAAFDAFA4FDBDF0B6F0ADF0BFA4BA
S1130894FDC9F0E5FFADF0BDF4FAF48B9DF25AF214
S11308A4FEADF0DAF48DF2480000A800BDF01002A9
S11308B4D761CFC1C3C5C761DFC1C3C5C761CF2079
S11308C404C9F00201ADF0BDF2FAF2ABBDF05AF086
S11308D4078DF09802C9F20A0188029DF0F4F1AD83
S11308E4F2BDF4DAF4ADF078000088029DF0D4F09F
S11308F461F8EC04090088029DF09800FC240A00C5
S1130904C9F012FFADF0BDF2FAF28B9DF09803AF7B
S1130914ACFDBDF2AFA8FDBDF0ADF246F061E3EC71
S11309246F0900AFA6FDBDF088039DF2ADF0BDF4E0
S1130934DAF48DF2480000AFA6FDBDF0A6F0ADF0E8
S1130944BFA6FDAFA8FDBDF0A6F0ADF0BFA8FDAFF6
S1130954ACFDBDF2AFA8FDBDF0ADF246F061E8EC2C
S11309647D0900FCF20900EC7D090088039DF0F484
S1130974F1ADF0B800FC1E0A00100461DFC6C4C265
S1130984C061CFC6C4C2C061FC61CFC1C3C5C76165
S1130994DFC1C3C5C761CFAFA4FDBDF0440000618E
S11309A4F8ECE00900C9F210FFAFAAFDBDF0BDF4F4
S11309B4FAF48B9DF0ADF2BDF4DAF48DF048000046
S11309C4AFAAFDBDF0A6F0ADF0BFAAFDAFA4FDBD76
S11309D4F0B6F0ADF0BFA4FDECE40900FC1F0A007E
S11309E461DFC6C4C2C061CFC6C4C2C061FC2004F6
S11309F4308CFBB800E6B802FCF00700AF80FBBD06
S1130A04F08F8CFB9DF2DAF0481CFBAF80FBBDF049
S1130A14A6F0ADF0BF80FB1004D7D7E6BF82FBD7A6
S1130A24D7C9F0F000ADF0BDF4FAF48B9DF26AF28C
S1130A3401ADF0DAF48DF2480000C9F0B601ADF06E
S1130A44BDF2DAF2300900780000C9F0B401ADF067
S1130A54BDF4DAF4300F0A780000C9F0E5FFADF014
S1130A64BDF4FAF48B9DF26AF240ADF0DAF48DF23F
S1130A74480000C9F0E1FFADF0BDF4FAF48B9DF237
S1130A845AF2BFADF0DAF48DF2480000C9F0E5FF84
S1130A94ADF0BDF4FAF48B9DF26AF280ADF0DAF4B1
S1130AA48DF2480000C9F0E1FFADF0BDF4FAF48B17
S1130AB49DF25AF27FADF0DAF48DF2480000C9F0E9
S1130AC4E5FFADF0BDF4FAF48B9DF26AF208ADF0E3
S1130AD4DAF48DF2480000C9F0E1FFADF0BDF4FA98
S1130AE4F48B9DF25AF2F7ADF0DAF48DF24800007B
S1130AF4C9F0E6FFADF0BDF4FAF48B9DF26AF2019D
S1130B04ADF0DAF48DF2480000C9F0E2FFADF0BDB7
S1130B14F4FAF48B9DF25AF2FEADF0DAF48DF24855
S1130B240000C9F0E6FFADF0BDF4FAF48B9DF26A5F
S1130B34F202ADF0DAF48DF2480000C9F0E2FFAD40
S1130B44F0BDF4FAF48B9DF25AF2FDADF0DAF48DB3
S1130B54F2480000C9F0E5FFADF0BDF4FAF48B9D52
S1130B64F26AF210ADF0DAF48DF2480000C9F0E153
S1130B74FFADF0BDF4FAF48B9DF25AF2EFADF0DA66
S1130B84F48DF2480000C9F0EDFFADF0BDF4FAF4C1
S1130B948B9DF26AF240ADF0DAF48DF2480000C99C
S1130BA4F0E9FFADF0BDF4FAF48B9DF26AF240ADC6
S1130BB4F0DAF48DF2480000C9F09001ADF0BDF212
S1130BC4DAF2F6780000C9F018FFADF0BDF4DAF4F7
S1130BD4301AB7780000C9F2B801C9F0B801ADF011
S1130BE4BDF4FAF4ABBDF05AF0FEADF2BDF4DAF4A0
S1130BF4ADF0780000C9F2BA01C9F0BA01ADF0BD94
S1130C04F4FAF4ABBDF05AF0FEADF2BDF4DAF4AD8F
S1130C14F0780000D7C9F0E1FFADF0BDF4FAF48B2D
S1130C249DF25AF2BFADF0DAF48DF2480000C9F037
S1130C34E5FFADF0BDF4FAF48B9DF25AF2BFADF0CA
S1130C44DAF48DF2480000C9F2B201C9F0B201AD80
S1130C54F0BDF4FAF4ABBDF06AF001ADF2BDF4DA20
S1130C64F4ADF0780000D7C9F2B401C9F0B401AD11
S1130C74F0BDF4FAF4ABBDF06AF001ADF2BDF4DA00
S1130C84F4ADF0780000C9F0E5FFADF0BDF4FAF47A
S1130C948B9DF26AF240ADF0DAF48DF2480000C99B
S1130CA4F0E1FFADF0BDF4FAF48B9DF25AF2BFAD5E
S1130CB4F0DAF48DF2480000D761CFC1C3C5C7612F
S1130CC4DFC1C3C5C761EFC161CF2004AF8AFBBDD7
S1130CD4F0A6F0ADF0BF8AFBBDF0443C0061E8EC43
S1130CE4F40C00E6BF16F9F6BF8AFB51309F33F9C2
S1130CF48F13F99DF0F4F1ADF004D0FFBDF001BD04
S1130D04F0312DBDF2ADF006F2BDF28F14F99DF071
S1130D14F4F1ADF004D0FFBDF0ADF206F0BDF0BFC8
S1130D2488FB8F10F99DF0F4F1ADF004D0FFBDF011
S1130D3401BDF0312DBDF2ADF006F2BDF28F11F913
S1130D449DF0F4F1ADF004D0FFBDF0ADF206F0BDBA
S1130D54F0BF86FB8F0DF99DF0F4F1ADF004D0FFE4
S1130D64BDF001BDF0312DBDF2ADF006F2BDF28F40
S1130D740EF99DF0F4F1ADF004D0FFBDF0ADF20630
S1130D84F0BDF0BF84FBAF88FBBDF0A6F0ADF0BFAF
S1130D9488FBBDF0B800303C00B802FCDB1A00AD9F
S1130DA4F0BF88FBBDF044000061E8ECE80D00AF3F
S1130DB486FBBDF0A6F0ADF0BF86FBBDF0B80030F5
S1130DC43C00B802FCDB1A00ADF0BF86FBBDF04466
S1130DD4000061E8ECE80D00AF88FBBDF0A6F0ADBF
S1130DE4F0BF88FBF6BFAEFDEC760E00AFAEFDBDE2
S1130DF4F2BDF001BDF006F2BDF0040D00BDE8AF94
S1130E04AEFDBDF001BDF00484FBBDF0BDF2FAF209
S1130E14ABBDF0B800300A00B802FC7A1A008DF0B9
S1130E240C309DF0DAE84800F9AFAEFDBDF2BDF038
S1130E3401BDF006F2BDF0040E00BDE8AFAEFDBD89
S1130E44F001BDF00484FBBDF0BDF2FAF2ABBDF0D9
S1130E54B800300A00B802FCDB1A008DF00C309D97
S1130E64F0DAE84800F9AFAEFDBDF0A6F0ADF0BF8E
S1130E74AEFDAFAEFDBDF044020071FF61E3ECF0E2
S1130E840D00100461EFC061DFC6C4C2C061CFC6E7
S1130E94C4C2C061FC61CFC1C3C5C7C6C4C2C061FA
S1130EA4FCC9F07700ADF0BDF2DAF2E1480000FCD1
S1130EB45C0300FCF40200FC700300FCBB0300FCB4
S1130EC4250A00C9F07800ADF0BDF2DAF2F1480069
S1130ED400D72002717BFAFCA50E00E6B800BDF031
S1130EE41002D761EFC161CF2004FC681600FCED49
S1130EF40300FC8B0600FC700300FC250A00FC19AB
S1130F040C00308CFBB800E6B802FCF00700F6BF16
S1130F14B2FDC9F002FFADF0BDF2EAF2895C019DB5
S1130F24F0D4F061E8EC410F00E6BF92FDAF88FD18
S1130F34BDF0A6F0ADF0BF88FDEC450F00F6BF92FE
S1130F44FDC9F002FFADF0BDF4FAF48B9DF0311A43
S1130F549DF05AF00161E8EC730F00E6BF94FDAF15
S1130F6488FDBDF0A6F0ADF0BF88FDEC770F00F668
S1130F74BF94FDC9F002FFADF0BDF2FAF28B9DF00F
S1130F84312A9DF05AF00161E8ECA50F00E6BF9602
S1130F94FDAF88FDBDF0A6F0ADF0BF88FDECA90F50
S1130FA400F6BF96FDC9F002FFADF0BDF4FAF48B70
S1130FB49DF0313A9DF05AF00161E8ECD70F00E658
S1130FC4BF98FDAF88FDBDF0A6F0ADF0BF88FDEC81
S1130FD4DB0F00F6BF98FDC9F006FFADF0BDF2EAE1
S1130FE4F2895C019DF0D4F061E8ECFE0F00AFB22D
S1130FF4FDBDF0A6F0ADF0BFB2FDC9F006FFADF043
S1131004BDF4FAF48B9DF0311A9DF05AF00161E8B5
S1131014EC261000AFB2FDBDF0A6F0A6F0ADF0BF13
S1131024B2FDC9F004FFADF0BDF2FAF28B9DF031CC
S11310341A9DF05AF00161E8EC4D1000AFB2FDBD09
S1131044F0040400BDF0BFB2FDC9F004FFADF0BD6F
S1131054F4FAF48B9DF0312A9DF05AF00161E8EC26
S1131064741000AFB2FDBDF0040800BDF0BFB2FDC2
S1131074C9F00CFFADF0BDF2FAF28B9DF0311A9D6C
S1131084F05AF00161E8EC9B1000AFB2FDBDF0042E
S11310941000BDF0BFB2FDC9F00CFFADF0BDF4FA11
S11310A4F48B9DF0312A9DF05AF00161E8ECC210F2
S11310B400AFB2FDBDF0042000BDF0BFB2FDC9F025
S11310C40DFFADF0BDF2FAF28B9DF0317A9DF0D4B0
S11310D4F061E8ECE81000AFB2FDBDF0044000BDDF
S11310E4F0BFB2FDAFB2FDBDF0B800306400B80289
S11310F4FC7A1A008DF00C309DF09F3BF9AFB2FDE1
S1131104BDF0B800300A00B802FC7A1A00ADF0B899
S113111400300A00B802FCDB1A008DF00C309DF09C
S11311249F3CF9AFB2FDBDF0B800300A00B802FC30
S1131134DB1A008DF00C309DF09F3DF9C9F002FFDD
S1131144ADF0BDF4EAF4895C019DF0D4F061F8ECEF
S1131154A91100C9F002FFADF0BDF2FAF28B9DF0C3
S1131164311A9DF05AF00161F8ECA91100C9F0029A
S1131174FFADF0BDF4FAF48B9DF0312A9DF05AF0E2
S11311840161F8ECA91100C9F002FFADF0BDF2FA57
S1131194F28B9DF0313A9DF05AF00161F8ECA911FB
S11311A400F6BF82FDF6BFAEFDEC1F1200AFAEFD2C
S11311B4BDF001BDF0048AFDBDF0BDF4FAF4ABBD8D
S11311C4F2AFAEFDBDF001BDF00492FDBDF0BDF47F
S11311D4FAF4ABBDF0ADF246F061F8EC131200F68C
S11311E4BF88FDAFAEFDBDF0AFAEFDBDF201BDF2F3
S11311F40492FDBDF2BDF4FAF4ABBDF2ADF001BD51
S1131204F0048AFDBDF0BDF4DAF4ADF2780000AF69
S1131214AEFDBDF0A6F0ADF0BFAEFDAFAEFDBDF0CA
S113122444030071FF61E3ECB11100AF88FDBDF02C
S1131234442B0171FF61E3ECC91200AF88FDBDF0DA
S113124444CF0771FF61F3ECC91200F6BF82FDAF0E
S113125492FDBDF044000061F8EC6D1200AF82FD14
S1131264BDF0A6F0ADF0BF82FDAF94FDBDF0440027
S11312740061F8EC891200AF82FDBDF0A6F0A6F07F
S1131284ADF0BF82FDAF96FDBDF044000061F8EC03
S1131294A41200AF82FDBDF0040400BDF0BF82FDC2
S11312A4AF98FDBDF044000061F8ECBF1200AF82BA
S11312B4FDBDF0040800BDF0BF82FD30D007BF8837
S11312C4FDECDF1200AF88FDBDF044CF0771FF6170
S11312D4E3ECDF120030D007BF88FDAFA0FDBDF002
S11312E444000061E8EC251500AF84FDBDF2AF8233
S11312F4FDBDF0ADF246F061F8ECCD1300AFA2FDF4
S1131304BDF044000061E8ECCD130051309F31F985
S113131451309F32F951319F33F951309F17FB51AA
S1131324369F18FB51339F19FBF6BFAEFDEC5113E6
S113133400AFAEFDBDF0042300BDF0DAF0F14818AF
S1131344F9AFAEFDBDF0A6F0ADF0BFAEFDAFAEFD9E
S1131354BDF044D00171FF61E3EC351300AF82FDAD
S1131364BDF08DF00C309DF09F3EF9512C9F3FF958
S1131374F6BFAEFDECA31300AFAEFDBDF004280030
S1131384BDF2AFAEFDBDF00400F9168B9DF0DAF2A8
S11313944818F9AFAEFDBDF0A6F0ADF0BFAEFDAF99
S11313A4AEFDBDF044140071FF61E3EC7C13005105
S11313B40D9F55F9510A9F56F9E6BF16F9AF82FD00
S11313C4BDF0BF84FDEC601600AFA2FDBDF0440087
S11313D40061F8EC601600E6BF9CFDEC0A1400AF53
S11313E49CFDBDF0042200BDF2AF9CFDBDF0048D54
S11313F4FB168B9DF0DAF24818F9AF9CFDBDF0A6FC
S1131404F0ADF0BF9CFDAF9CFDBDF2AF9AFDBDF005
S1131414ADF246F071FF7177F161D8ECE31300AFDC
S11314249CFDBDF0042200BDF0DAF0510D4818F91A
S1131434AF9CFDBDF0042300BDF0DAF0510A481856
S1131444F9AF9AFDBDF0B80030C409B802FC7A1AA9
S1131454008DF00C309DF09F31F9AF9AFDBDF0B8CA
S11314640030FA00B802FC7A1A00ADF0B800300A71
S113147400B802FCDB1A008DF00C309DF09F32F9A9
S1131484AF9AFDBDF0B800301900B802FC7A1A0016
S1131494ADF0B800300A00B802FCDB1A008DF00C81
S11314A4309DF09F33F9AF9AFDBDF0042400BDF0E4
S11314B4B800306400B802FC7A1A008DF00C309D38
S11314C4F09F17FBAF9AFDBDF0042400BDF0B800F3
S11314D4300A00B802FC7A1A00ADF0B800300A00F1
S11314E4B802FCDB1A008DF00C309DF09F18FBAFA2
S11314F49AFDBDF0042400BDF0B800300A00B8021F
S1131504FCDB1A008DF00C309DF09F19FBF6BFA292
S1131514FDF6BF9CFDF6BF9AFDE6BF16F9EC601616
S1131524008F3CF99DF070F1BDF2AF82FDBDF00473
S11315343000BDF0ADF246F061F8EC601600AF8403
S1131544FDBDF2AF82FDBDF0ADF246F061F8EC6092
S11315541600AF9AFDBDF0A1BDF2BF9AFDDAF051B9
S11315642C488DFBAF9AFDBDE8A1BDF0BF9AFDAF39
S1131574B2FDBDF0B800306400B802FC7A1A008DE4
S1131584F00C309DF0DAE8488DFBAF9AFDBDE8A17C
S1131594BDF0BF9AFDAFB2FDBDF0B800300A00B88B
S11315A402FC7A1A00ADF0B800300A00B802FCDB81
S11315B41A008DF00C309DF0DAE8488DFBAF9AFDEB
S11315C4BDE8A1BDF0BF9AFDAFB2FDBDF0B80030D7
S11315D40A00B802FCDB1A008DF00C309DF0DAE846
S11315E4488DFBAF9AFDBDF0A1BDF2BF9AFDAF8259
S11315F4FDBDF28DF20C309DF2DAF0488DFBAF9A0A
S1131604FDBDF0A1BDF2BF9AFDDAF0512C488DFB6B
S1131614F6BFAEFDEC441600AF9AFDBDF0A1BDF2D9
S1131624BF9AFDAFAEFDBDF20400F9168B9DF2DA4C
S1131634F0488DFBAFAEFDBDF0A6F0ADF0BFAEFD3E
S1131644AFAEFDBDF044140071FF61E3EC1C160061
S1131654AF82FDBDF0BF84FDE6BFA2FDFCD517003B
S1131664EC120F00717AFAD7F6BFAEFDEC931600B4
S1131674AFAEFDBDF0A80406F0BDF0BDF2DAF2F1A0
S1131684480000AFAEFDBDF0A6F0ADF0BFAEFDAFB7
S1131694AEFDBDF044630071FF61E3EC741600F623
S11316A4BF80FBD72002F6BFAEFDECB31700A80839
S11316B4BDF0BDF4FAF48B9DF2A806BDF0BDF4FAB6
S11316C4F48B9DF08DF24BF061E8EC861700F6BFC5
S11316D4B0FDEC6A1700A808BDF0BDF4FAF48B9DC4
S11316E4F2A806BDF0BDF4FAF48B9DF08DF24BF034
S11316F461F8EC221700AFAEFDBDF2AFB0FDBDF052
S1131704ADF206F0BDF0BFAEFDAFB0FDBDF0F62600
S1131714F0BDF0A80806F0B80800EC8B1700A80C7C
S1131724B1BDF2AFB0FDBDF0ADF246F061E8EC54EA
S11317341700AFAEFDBDF2AFB0FDBDF0ADF206F0E3
S1131744BDF0A6F0ADF0BF84FBE6B800ECCE170004
S1131754A808A1B808A806A1B806AFB0FDBDF0A6B4
S1131764F0ADF0BFB0FDAFB0FDBDF2A80CBDF0AD5F
S1131774F246F071FF7177F161D8ECDA1600EC8B64
S11317841700A806A1B806AFAEFDBDF2A80ABDF0C5
S1131794ADF246F071FF7177F161D8ECA71700EC54
S11317A4CB1700AFAEFDBDF0A6F0ADF0BFAEFDAFFC
S11317B4AEFDBDF2A80ABDF0ADF246F071FF71773B
S11317C4F161D8ECB21600F6B800A800BDF010021E
S11317D4D72008AF16F9BDF044000061F8EC1A18DC
S11317E400AFA0FDBDF044000061E8EC1A1800E667
S11317F4BFA0FDF6BF16F9301CFBB800FC6C160044
S1131804301620B800302700B802FC220800F6BFC6
S113181482FBF6BF86FDAF80FBBDF0301CFBB80035
S1131824300020B802ADF0B804300200B806FCA8B9
S11318341600ADF044000061F8EC6C1800E6BF9E9D
S1131844FDAFA0FDBDF044000061F8EC5F1800AFEB
S113185486FDBDF0A6F0ADF0BF86FD301CFBB800DC
S1131864FC6C1600ECAF1900AF80FBBDF0301CFB20
S1131874B800300720B802ADF0B804300500B8064B
S1131884FCA81600ADF044000061F8ECE51800AFC4
S113189486FDBDF044000061E8ECBE1800E6BF9E7E
S11318A4FDAF86FDBDF0A6F0ADF0BF86FD301CFB98
S11318B4B800FC6C1600ECAF1900F6BF9EFD301C9A
S11318C4FBB800FC6C1600301620B800302700B8B2
S11318D402FC220800F6BF82FBF6BF86FDECAF19BA
S11318E400AF80FBBDF0301CFBB800300C20B80204
S11318F4ADF0B804300600B806FCA81600ADF044F8
S1131904000061E8EC331900AF80FBBDF0301CFB30
S1131914B800301220B802ADF0B804300400B806A0
S1131924FCA81600ADF044000061F8EC3F1900F681
S1131934BFA0FDF6BF9EFDECAF1900AF80FBBDF068
S1131944301CFBB800300220B802ADF0B8043005F6
S113195400B806FCA81600ADF044000061F8ECAF32
S11319641900F6BF8AFBF6BFAEFDEC9F1900AFAEBB
S1131974FDBDF0AF84FBBDF4AFAEFDBDF2ADF40626
S1131984F2BDF2041CFB168B9DF2DAF04800F9AFA9
S1131994AEFDBDF0A6F0ADF0BFAEFDAFAEFDBDF043
S11319A444120071FF61E3EC721900AF82FBBDF0D5
S11319B444000061F8EC171A00AF9EFDBDF044002A
S11319C40061F8EC171A00AF86FDBDF04401006114
S11319D4E8ECF31900300CFBB800301000B802FC3A
S11319E4220800F6BF82FBF6BF9EFDEC171A00AF77
S11319F486FDBDF044020061E8EC171A003018F9C2
S1131A04B80030F401B802FC220800F6BF82FBF6E9
S1131A14BF9EFD1008D71C1ACBF8DCFE410061CF31
S1131A2434D8003600F961DF3600F9301CFB273165
S1131A341E440000DD0EB161CF11A9BBA5A5A7A763
S1131A4461DFEFED61CF361CFB30000061DF30B4A1
S1131A54FD27311E440000DD0AB161CFBBA7A76195
S1131A64DFEFF161CFFCD60E0000300000C1C1C12C
S1131A74FCE70E00EFFE51C09FE800F6BEF4BEF290
S1131A84A806BEF671FCDC18A80471FCBEF0DC2BBD
S1131A9451C19FE8008FE8003103FAAEF0BDF0D7DE
S1131AA4AFF6FF12F623BEF6A80471FCBEF0DE13F3
S1131AB4AFF0FF12F623BEF0EED5FFAFF0FF12F63F
S1131AC423BEF051C19FE8008FE8003103FAAFF060
S1131AD4FF12F623BDF0D751C09FE800F6BEF4BE52
S1131AE4F2A806BEF671FCDC19A80471FCBEF0DC95
S1131AF42C51C19FE8008FE8003103FAAFE000BD28
S1131B04F0D7AFF6FF12F623BEF6A80471FCBEF0BC
S1131B14DEDFAFF0FF12F623BEF0EE0800AFF0FFF5
S1131B2412F623BEF051C19FE8008FE8003103FA96
S1131B34AFE00012F623BDF0D751C09FE800A8041B
S1131B44BEF0A806BEF6F6BEF2BEF451C19FE8008C
S1131B548FE8003103FAAFF0FFBDF0D751C09FE81E
S1131B6400A804BEF0A806BEF6F6BEF2BEF451C147
S1131B749FE8008FE8003103FAAFE000BDF0D7001E
S11320004F4B74696D653D4552524F52434C4F538B
S113201045444641494C41542B4349505354415241
S1132020543D22544350222C223134302E31323547
S11020302E34392E323130222C38300D0A76
S9031A1CC6
