S0140000524C37385F776966695F73716C2E6D6F74A3
S1070000A118FFFF41
S11300048B0C8B0C8B0C8B0C8B0C8B0C8B0C8B0C30
S11300141F084B078B0C8B0C8B0C8B0C580A8B0C0A
S11300248B0C8B0C8B0C8B0C8B0C8B0C8B0C8B0C10
S11300348B0C8B0C8B0C8B0C8B0C8B0C8B0C8B0C00
S11300448B0C8B0C8B0C8B0C8B0C8B0C8B0C8B0CF0
S11300548B0C8B0C8B0C8B0C8B0C8B0C8B0C8B0CE0
S11300648B0C8B0C8B0C8B0C8B0C8B0C8B0C8B0CD0
S10F00748B0C8B0C8B0C8B0C8B0C8B0CF2
S10700C0EFFFE00466
S10D00C4000000000000000000002E
S11300D8323031382D30342D313025323032323A05
S11300E833303A31300101474554202F626561723B
S11300F82F74696D652E7068703F636F756E743DFB
S11301083030302673746174653D303031302C32B0
S11301183031382D30342D313125323031303A34C4
S1130128303A33390D0A00000000000000000000D6
S113013800000000000000000000000000000000B3
S113014800000000000000000000000000000000A3
S11301580000000000000000000000000000000093
S11301680000000000000000000000000000000083
S11301780000000000000000000000000000000073
S11301880000000000000000000000000000000063
S11301980000000000000000000000000000000053
S11301A80000000000000000000000000000000043
S11301B80000000000000000000000000000000033
S11301C80000000000000000000000000000000023
S11301D80000000000000000000000000000000013
S11301E80000000000000000000000000000000003
S11301F800000000000000000000000000000000F3
S113020800000000000000000000000000000000E2
S113021800000000000000000000000000000000D2
S113022800000000000000000000000000000000C2
S113023800000000000000000000000000000000B2
S113024800000000000000000000000000000000A2
S11302580000000000000000000000000000000092
S11302680000000000000000000000000000000082
S11302780000000000000000000000000000000072
S11302880000000000000000000000000000000062
S11302980000000000000000000000000000000052
S11302A80000000000000000000000000000000042
S11302B80000000000000000000000000000000032
S11302C80000000000000000000000000000000022
S11302D8000000000000000000000041542B4349C6
S10F02E85053454E443D3036330D0A009F
S11302F4C9F0A0FFADF0BDF2EAF2F199C9F0A1FF93
S1130304ADF0BDF2FAF271F2C9F0A4FFADF0BDF2A2
S1130314FAF271C3C9F0F300ADF0BDF2EAF2F19957
S1130324C9F0A1FFADF0BDF2FAF27183D72002C97E
S1130334F0A8FFADF0BDF2FAF28B9DF09801100223
S1130344D7C9F006FFADF0BDF2EAF2F199C9F06441
S113035400ADF0BDF2EAF251F999C9F07600ADF0BE
S1130364BDF2EAF2E199C9F022FFADF0BDF2EAF27E
S113037451FF99C9F024FFADF0BDF2EAF251FF999F
S1130384C9F026FFADF0BDF2EAF251FE99D7C9F0E7
S1130394F000ADF0BDF2FAF271A200000000C9F061
S11303A42601ADF0BDF2EAF2304400B9FCB5030015
S11303B4D7C9F22401C9F02401ADF0BDF4FAF4ABB9
S11303C4BDF06AF003ADF2BDF4EAF4ADF0B9C9F0DE
S11303D4E5FFADF0BDF2FAF27182C9F0E1FFADF0D0
S11303E4BDF4FAF47183C9F0E5FFADF0BDF2FAF29D
S11303F47192C9F0E1FFADF0BDF4FAF47193C9F060
S1130404E5FFADF0BDF2FAF271A2C9F0E1FFADF07F
S1130414BDF4FAF471A3C9F0EDFFADF0BDF2FAF244
S11304247182C9F0E9FFADF0BDF4FAF47182C9F048
S1130434EDFFADF0BDF2FAF27192C9F0E9FFADF04F
S1130444BDF4FAF47192C9F01001ADF0BDF2EAF210
S1130454302200B9C9F01801ADF0BDF4EAF43097C4
S113046480B9C9F010FFADF0BDF2EAF230009AB9D8
S1130474C9F27000C9F07000ADF0BDF4FAF48B9DBC
S1130484F06AF001ADF2BDF4EAF48DF099C9F00A12
S113049401ADF0BDF2EAF2300700B9C9F01201ADC2
S11304A4F0BDF4EAF4302201B9C9F01A01ADF0BD8B
S11304B4F2EAF2309740B9C9F012FFADF0BDF4EAA4
S11304C4F430009AB9C9F22801C9F02801ADF0BD8D
S11304D4F4FAF4ABBDF06AF001ADF2BDF4EAF4ADA4
S11304E4F0B9C9F23401C9F03401ADF0BDF4FAF441
S11304F4ABBDF0ADF2BDF4EAF4ADF0B9C9F22A0132
S1130504C9F02A01ADF0BDF4FAF4ABBDF06AF00110
S1130514ADF2BDF4EAF4ADF0B9C9F26100C9F06119
S113052400ADF0BDF4FAF48B9DF05AF0FDADF2BDCC
S1130534F4EAF48DF099C9F221FFC9F021FFADF07A
S1130544BDF4FAF48B9DF06AF002ADF2BDF4EAF462
S11305548DF099C9F26100C9F06100ADF0BDF4FAFF
S1130564F48B9DF05AF0FBADF2BDF4EAF48DF099EE
S1130574C9F201FFC9F001FFADF0BDF4FAF48B9D9B
S1130584F06AF004ADF2BDF4EAF48DF099C9F221F5
S1130594FFC9F021FFADF0BDF4FAF48B9DF05AF0DD
S11305A4FBADF2BDF4EAF48DF099D7C9F22801C980
S11305B4F02801ADF0BDF4FAF4ABBDF06AF001AD7E
S11305C4F2BDF4EAF4ADF0B9C9F22A01C9F02A0182
S11305D4ADF0BDF4FAF4ABBDF06AF001ADF2BDF4D4
S11305E4EAF4ADF0B9C9F22201C9F02201ADF0BDBB
S11305F4F4FAF4ABBDF06AF003ADF2BDF4EAF4AD81
S1130604F0B9C9F0E1FFADF0BDF2FAF27183C9F0BB
S1130614E1FFADF0BDF4FAF47193C9F0E5FFADF078
S1130624BDF2FAF27183C9F0E5FFADF0BDF4FAF45A
S11306347193D7C9F0E5FFADF0BDF2FAF27182C946
S1130644F0E5FFADF0BDF4FAF47192C9F22401C9E6
S1130654F02401ADF0BDF4FAF4ABBDF06AF003ADDF
S1130664F2BDF4EAF4ADF0B9C9F22A01C9F02A01E1
S1130674ADF0BDF4FAF4ABBDF05AF0FEADF2BDF446
S1130684EAF4ADF0B9C9F0E1FFADF0BDF2FAF271EC
S113069483C9F0E1FFADF0BDF4FAF47193D72002FD
S11306A4F6B800A80844000061E8ECBB06003081F9
S11306B400B800ECCD0600F6BFACFDA808BDF0BF41
S11306C4B0FDA806BDF0BFAAFDA800BDF01002D776
S11306D42002F6B800A80844000061E8ECED060026
S11306E4308100B800EC440700A806BDF0BFAEFD9D
S11306F4A808BDF0BFA8FDC9F0E5FFADF0BDF2FA4E
S1130704F27182C9F210FFAFAEFDBDF0BDF4FAF48C
S11307148B9DF0ADF2BDF4EAF48DF099AFAEFDBD5E
S1130724F0A6F0ADF0BFAEFDAFA8FDBDF0B6F0ADE0
S1130734F0BFA8FDC9F0E5FFADF0BDF2FAF2718394
S1130744A800BDF01002D761CFC1C3C5C761DFC122
S1130754C3C5C761CF2004C9F00201ADF0BDF2FAEC
S1130764F2ABBDF05AF0078DF09802C9F20A018881
S1130774029DF0F4F1ADF2BDF4EAF4ADF0B98802EF
S11307849DF0D4F061F8EC98070088029DF098007D
S1130794FCC60800C9F012FFADF0BDF2FAF28B9D5D
S11307A4F09803AFB0FDBDF2AFACFDBDF0ADF246C1
S11307B4F061E3EC010800AFAAFDBDF088039DF2EB
S11307C4ADF0BDF4EAF48DF299AFAAFDBDF0A6F044
S11307D4ADF0BFAAFDAFACFDBDF0A6F0ADF0BFAC6B
S11307E4FDAFB0FDBDF2AFACFDBDF0ADF246F061BE
S11307F4E8EC0F0800FC820800EC0F080088039D55
S1130804F0F4F1ADF0B800FCC00800100461DFC6D8
S1130814C4C2C061CFC6C4C2C061FC61CFC1C3C578
S1130824C761DFC1C3C5C761CFAFA8FDBDF0440034
S11308340061F8EC700800C9F210FFAFAEFDBDF022
S1130844BDF4FAF48B9DF0ADF2BDF4EAF48DF099A5
S1130854AFAEFDBDF0A6F0ADF0BFAEFDAFA8FDBDDB
S1130864F0B6F0ADF0BFA8FDEC740800FCC10800BC
S113087461DFC6C4C2C061CFC6C4C2C061FC200467
S1130884308EFBB800E6B802FCA20600AF80FBBDC4
S1130894F08F8EFB9DF2DAF0481CFBAF80FBBDF0B9
S11308A4A6F0ADF0BF80FBBDF0B800306400B80220
S11308B4FC5F1900ADF0BF80FB1004D7D7E6BF82FC
S11308C4FBD7D7C9F0F000ADF0BDF2FAF27182C9DA
S11308D4F0B601ADF0BDF4EAF4300900B9C9F0B4DE
S11308E401ADF0BDF2EAF2300F0AB9C9F0E5FFAD8B
S11308F4F0BDF4FAF471E2C9F0E1FFADF0BDF2FA2F
S1130904F271E3C9F0E5FFADF0BDF4FAF471F2C994
S1130914F0E1FFADF0BDF2FAF271F3C9F0E5FFAD19
S1130924F0BDF4FAF471B2C9F0E1FFADF0BDF2FA2E
S1130934F271B3C9F0E6FFADF0BDF4FAF47182C903
S1130944F0E2FFADF0BDF2FAF27183C9F0E6FFAD57
S1130954F0BDF4FAF47192C9F0E2FFADF0BDF2FA1D
S1130964F27193C9F0E5FFADF0BDF4FAF471C2C9B4
S1130974F0E1FFADF0BDF2FAF271C3C9F0EDFFADE1
S1130984F0BDF4FAF471E2C9F0E9FFADF0BDF2FA96
S1130994F271E2C9F09001ADF0BDF4EAF4F6B9C91C
S11309A4F018FFADF0BDF2EAF2301AB7B9C9F2B8E3
S11309B401C9F0B801ADF0BDF4FAF4ABBDF05AF0DE
S11309C4FEADF2BDF4EAF4ADF0B9C9F2BA01C9F06E
S11309D4BA01ADF0BDF4FAF4ABBDF05AF0FEADF2D9
S11309E4BDF4EAF4ADF0B9D7C9F0E1FFADF0BDF25E
S11309F4FAF271E3C9F0E5FFADF0BDF4FAF471E382
S1130A04C9F2B201C9F0B201ADF0BDF4FAF4ABBD60
S1130A14F06AF001ADF2BDF4EAF4ADF0B9D7C9F26D
S1130A24B401C9F0B401ADF0BDF4FAF4ABBDF06A9D
S1130A34F001ADF2BDF4EAF4ADF0B9C9F0E5FFADEF
S1130A44F0BDF2FAF271E2C9F0E1FFADF0BDF4FADF
S1130A54F471E3D761CFC1C3C5C761DFC1C3C5C7DF
S1130A6461EFC161CF2004AF8AFBBDF0A6F0ADF005
S1130A74BF8AFB8FA6FD9DF0D4F061F8EC900A00C8
S1130A84AF8CFBBDF0A6F0ADF0BF8CFBAF8AFBBD11
S1130A94F0443B0071FF61E3ECAC0A0051309F3237
S1130AA4F9E515F9F6BF8AFBAF8CFBBDF0440300EE
S1130AB461E8ECD90A00C9F026FFADF0BDF2EAF210
S1130AC451FE99C9F006FFADF0BDF2FAF27183E567
S1130AD416F9F5A6FD8F13F99DF0F4F1ADF004D0E9
S1130AE4FFBDF001BDF0312DBDF2ADF006F2BDF253
S1130AF48F14F99DF0F4F1ADF004D0FFBDF0ADF224
S1130B0406F0BDF0BF88FB8F10F99DF0F4F1ADF051
S1130B1404D0FFBDF001BDF0312DBDF2ADF006F2FD
S1130B24BDF28F11F99DF0F4F1ADF004D0FFBDF0E6
S1130B34ADF206F0BDF0BF86FB8F0DF99DF0F4F124
S1130B44ADF004D0FFBDF001BDF0312DBDF2ADF028
S1130B5406F2BDF28F0EF99DF0F4F1ADF004D0FF6E
S1130B64BDF0ADF206F0BDF0BF84FBAF88FBBDF071
S1130B74A6F0ADF0BF88FBBDF0B800303C00B8026D
S1130B84FC5F1900ADF0BF88FBBDF044000061E8D0
S1130B94ECCD0B00AF86FBBDF0A6F0ADF0BF86FB39
S1130BA4BDF0B800303C00B802FC5F1900ADF0BFE2
S1130BB486FBBDF044000061E8ECCD0B00AF88FB7C
S1130BC4BDF0A6F0ADF0BF88FBF5B2FDEC6A0C00F5
S1130BD48FB2FD9DF070F1BDF2BDF001BDF006F2DF
S1130BE4BDF0040D00BDE88FB2FD9DF0F4F1ADF04D
S1130BF401BDF00484FBBDF0BDF2FAF2ABBDF0B864
S1130C0400300A00B802FCFF18008DF00C309DF08F
S1130C14DAE84800F98FB2FD9DF070F1BDF2BDF041
S1130C2401BDF006F2BDF0040E00BDE88FB2FD9DD7
S1130C34F0F4F1ADF001BDF00484FBBDF0BDF2FAB3
S1130C44F2ABBDF0B800300A00B802FC5F19008DA5
S1130C54F00C309DF0DAE84800F98FB2FD9DF0A461
S1130C64F08DF09FB2FD8FB2FD9DF04AF00261E376
S1130C74ECD40B00100461EFC061DFC6C4C2C061D0
S1130C84CFC6C4C2C061FC61CFC1C3C5C7C6C4C298
S1130C94C061FCC9F07700ADF0BDF2EAF2E199FC61
S1130CA4310300FCF40200FC450300FC920300FC45
S1130CB4C70800C9F07800ADF0BDF2EAF2F199D7A3
S1130CC42002717BFAFC970C00E6B800BDF0100218
S1130CD4D761EFC161CF2008FCA91400FCB503005F
S1130CE4FC450300FCC70800FCEC0900FCAF05004C
S1130CF4C9F006FFADF0BDF2FAF27183308EFBB891
S1130D0400E6B802FCA20600C9F002FFADF0BDF48F
S1130D14FAF48B5C019DF0D4F061E8EC2B0D00E651
S1130D24BF98FDEC2F0D00F6BF98FDC9F002FFAD8E
S1130D34F0BDF2FAF28B3159317A9DF04AF0016137
S1130D44E8EC510D00E6BF92FDEC550D00F6BF92A0
S1130D54FDC9F002FFADF0BDF4FAF48B3169317AC8
S1130D649DF04AF00161E8EC770D00E6BF94FDECD8
S1130D747B0D00F6BF94FDC9F002FFADF0BDF2FA9D
S1130D84F28B3149317A9DF04AF00161E8EC9D0D12
S1130D9400E6BF96FDECA10D00F6BF96FDF6BFB6C6
S1130DA4FDC9F006FFADF0BDF4FAF48B3169317A74
S1130DB49DF04AF00161E8ECCB0D00AFB6FDBDF047
S1130DC4A6F0ADF0BFB6FDC9F00CFFADF0BDF2FA6C
S1130DD4F28B3169317A9DF04AF00161E8ECF30D4C
S1130DE400AFB6FDBDF0A6F0A6F0ADF0BFB6FDC9E8
S1130DF4F00CFFADF0BDF4FAF48B3159317A9DF067
S1130E044AF00161E8EC1A0E00AFB6FDBDF004042B
S1130E1400BDF0BFB6FDC9F00DFFADF0BDF2FAF2AE
S1130E248B317A9DF04AF00161E8EC3F0E00AFB6D5
S1130E34FDBDF0040800BDF0BFB6FDC9F004FFAD6C
S1130E44F0BDF4FAF48B3169317A9DF04AF0016112
S1130E54E8EC660E00AFB6FDBDF0041000BDF0BFB3
S1130E64B6FDC9F004FFADF0BDF2FAF28B3159318D
S1130E747A9DF04AF00161E8EC8D0E00AFB6FDBD39
S1130E84F0042000BDF0BFB6FDAFB6FDBDF0B80060
S1130E94306400B802FCFF18008DF00C309DF09F04
S1130EA43AF9AFB6FDBDF0B800300A00B802FCFF51
S1130EB41800ADF0B800300A00B802FC5F19008DC8
S1130EC4F00C309DF09F3BF9AFB6FDBDF0B8003097
S1130ED40A00B802FC5F19008DF00C309DF09F3CB1
S1130EE4F9C9F002FFADF0BDF4FAF48B5C019DF096
S1130EF4D4F061E8EC4B0F00C9F002FFADF0BDF291
S1130F04FAF28B3169317A9DF0D4F061E8EC4B0F3D
S1130F1400C9F002FFADF0BDF4FAF48B3159317A13
S1130F249DF0D4F061E8EC4B0F00C9F002FFADF082
S1130F34BDF2FAF28B3149317A9DF0D4F061F8ECC8
S1130F444B0F00F6BF84FDF6BFB2FDECBE0F00AF3D
S1130F54B2FDBDF001BDF0048AFDBDF0BDF4FAF4A8
S1130F64ABBDF2AFB2FDBDF001BDF00492FDBDF026
S1130F74BDF4FAF4ABBDF0ADF246F061F8ECB20F97
S1130F8400E5A5FDAFB2FDBDF2AFB2FDBDF001BDFC
S1130F94F00492FDBDF0BDF4FAF4ABBDF0ADF20182
S1130FA4BDF2048AFDBDF2BDF4EAF4ADF0B9AFB20A
S1130FB4FDBDF0A6F0ADF0BFB2FDAFB2FDBDF0448F
S1130FC4030071FF61E3EC530F008FA5FD9DF0D482
S1130FD4F061F8EC471000F6BF84FDAF92FDBDF05C
S1130FE444000061F8ECF90F00AF84FDBDF0A6F0F5
S1130FF4ADF0BF84FDAF94FDBDF044000061F8EC96
S1131004151000AF84FDBDF0A6F0A6F0ADF0BF84CA
S1131014FDAF96FDBDF044000061F8EC301000AF64
S113102484FDBDF0040400BDF0BF84FDAF98FDBD94
S1131034F044000061F8EC441000300800BF84FD63
S1131044F5A5FD8FA1FD9DF0D4F061E8ECB212008A
S11310548FA4FD9DF0D4F061F8ECB21200AF86FDCC
S1131064BDF2AF84FDBDF0ADF246F061F8EC4C1175
S1131074008FA2FD9DF0D4F061E8EC4C11008FA622
S1131084FD9DF0D4F061E8EC4C110051309F30F92F
S113109451309F31F951319F32F951309F16FB5130
S11310A4369F17FB51339F18FBF6BFB2FDECD110EA
S11310B400AFB2FDBDF0042300BDF0DAF0F148172F
S11310C4F9AFB2FDBDF0A6F0ADF0BFB2FDAFB2FD15
S11310D4BDF044D00171FF61E3ECB51000AF84FDB1
S11310E4BDF08DF00C309DF09F3DF9512C9F3EF9DD
S11310F4F6BFB2FDEC231100AFB2FDBDF00428002D
S1131104BDF2AFB2FDBDF00400F9168B9DF0DAF226
S11311144817F9AFB2FDBDF0A6F0ADF0BFB2FDAF14
S1131124B2FDBDF044140071FF61E3ECFC10005106
S11311340D9F54F9510A9F55F9E515F9AF84FDBD86
S1131144F0BF86FDECAE12008FA2FD9DF0D4F061D9
S1131154F8ECAE12008FA6FD9DF0D4F061E8ECAE7D
S11311641200E6BF9CFDEC951100AF9CFDBDF0049C
S11311742200BDF2AF9CFDBDF0048FFB168B9DF0E5
S1131184DAF24817F9AF9CFDBDF0A6F0ADF0BF9CB0
S1131194FDAF9CFDBDF2AF9AFDBDF0ADF246F0711A
S11311A4FF7177F161D8EC6E1100AF9CFDBDF004C2
S11311B42200BDF0DAF0510D4817F9AF9CFDBDF0E3
S11311C4042300BDF0DAF0510A4817F9AF9AFDBDC3
S11311D4F0B80030C409B802FCFF18008DF00C30DC
S11311E49DF09F30F9AF9AFDBDF0B80030FA00B815
S11311F402FCFF1800ADF0B800300A00B802FC5F2E
S113120419008DF00C309DF09F31F9AF9AFDBDF0BB
S1131214B800301900B802FCFF1800ADF0B8003073
S11312240A00B802FC5F19008DF00C309DF09F3267
S1131234F9AF9AFDBDF0042400BDF0B80030640099
S1131244B802FCFF18008DF00C309DF09F16FBAF24
S11312549AFDBDF0042400BDF0B800300A00B802C1
S1131264FCFF1800ADF0B800300A00B802FC5F19A6
S1131274008DF00C309DF09F17FBAF9AFDBDF00478
S11312842400BDF0B800300A00B802FC5F19008DD8
S1131294F00C309DF09F18FBF5A2FDF6BF9CFDF603
S11312A4BF9AFDE515F9EC131400EC1314008FA197
S11312B4FD9DF0D4F061E8ECCC12008FA6FD9DF006
S11312C4D4F061F8EC1314008F3DF99DF070F1BD76
S11312D4F2AF84FDBDF0043000BDF0ADF246F06120
S11312E4F8EC131400AF86FDBDF2AF84FDBDF0AD80
S11312F4F246F061F8EC1314008FA4FD9DF0D4F0D1
S113130461F8EC131400AF9AFDBDF0A1BDF2BF9ACD
S1131314FDDAF0512C488FFBAF9AFDBDE8A1BDF076
S1131324BF9AFDAFB6FDBDF0B800306400B802FC4E
S1131334FF18008DF00C309DF0DAE8488FFBAF9A6B
S1131344FDBDE8A1BDF0BF9AFDAFB6FDBDF0B80088
S1131354300A00B802FCFF1800ADF0B800300A00EF
S1131364B802FC5F19008DF00C309DF0DAE8488F68
S1131374FBAF9AFDBDE8A1BDF0BF9AFDAFB6FDBDBC
S1131384F0B800300A00B802FC5F19008DF00C308C
S11313949DF0DAE8488FFBAF9AFDBDF0A1BDF2BF22
S11313A49AFDAF84FDBDF28DF20C309DF2DAF04863
S11313B48FFBAF9AFDBDF0A1BDF2BF9AFDDAF051E7
S11313C42C488FFBF6BFB2FDECF81300AF9AFDBDB9
S11313D4F0A1BDF2BF9AFDAFB2FDBDF20400F9164F
S11313E48B9DF2DAF0488FFBAFB2FDBDF0A6F0ADF1
S11313F4F0BFB2FDAFB2FDBDF044140071FF61E370
S1131404ECD01300AF84FDBDF0BF86FDE5A2FD8FD3
S113141416F99DF0D4F061F8EC5C1400AF8AFBBDBE
S1131424F044030061E8EC5C1400C9F006FFADF07D
S1131434BDF2FAF27182C9F026FFADF0BDF4EAF40C
S113144451FF99301CFBB800FCAD1400F516F9F5F6
S1131454A3FDE515F9F5A1FDAF80FBBDF0301CFB40
S1131464B800302720B802ADF0B804300B00B80639
S1131474FCE71400ADF044000061E8EC911400AF03
S11314848AFBBDF0442D0061E8EC941400E5A3FD4F
S11314948FA3FD9DF0D4F061F8ECA51400FC1416A0
S11314A400EC0C0D00717AFAD7F6BFB2FDECD2143D
S11314B400AFB2FDBDF0A80406F0BDF0BDF2EAF23F
S11314C4F199AFB2FDBDF0A6F0ADF0BFB2FDAFB27D
S11314D4FDBDF044630071FF61E3ECB51400F6BF95
S11314E480FBD72002F6BFB2FDECF21500A808BDBC
S11314F4F0BDF4FAF48B9DF2A806BDF0BDF4FAF441
S11315048B9DF08DF24BF061E8ECC51500F6BFB489
S1131514FDECA91500A808BDF0BDF4FAF48B9DF206
S1131524A806BDF0BDF4FAF48B9DF08DF24BF06186
S1131534F8EC611500AFB2FDBDF2AFB4FDBDF0AD82
S1131544F206F0BDF0BFB2FDAFB4FDBDF0F626F077
S1131554BDF0A80806F0B80800ECCA1500A80CB140
S1131564BDF2AFB4FDBDF0ADF246F061E8EC931505
S113157400AFB2FDBDF2AFB4FDBDF0ADF206F0BDF7
S1131584F0A6F0ADF0BF84FBE6B800EC0D1600A89D
S113159408A1B808A806A1B806AFB4FDBDF0A6F02A
S11315A4ADF0BFB4FDAFB4FDBDF2A80CBDF0ADF217
S11315B446F071FF7177F161D8EC191500ECCA1586
S11315C400A806A1B806AFB2FDBDF2A80ABDF0ADED
S11315D4F246F071FF7177F161D8ECE61500EC0A7C
S11315E41600AFB2FDBDF0A6F0ADF0BFB2FDAFB2D0
S11315F4FDBDF2A80ABDF0ADF246F071FF7177F1BA
S113160461D8ECF11400F6B800A800BDF01002D7BC
S113161420088F15F99DF0D4F061F8EC5C16008F66
S1131624A1FD9DF0D4F061E8EC5C1600E5A1FDF5A4
S113163415F9301CFBB800FCAD1400F6BF8CFB306C
S11316443220B800302700B802FCD40600E5A6FD19
S1131654F6BF82FBF6BF88FDAF80FBBDF0301CFBF8
S1131664B800300020B802ADF0B804300200B80667
S1131674FCE71400ADF044000061F8ECAC1600E59E
S1131684A0FD8FA1FD9DF0D4F061F8EC9F1600AF8E
S113169488FDBDF0A6F0ADF0BF88FD301CFBB8009A
S11316A4FCAD1400EC2F1800AF80FBBDF0301CFB24
S11316B4B800300720B802ADF0B804300500B8060D
S11316C4FCE71400ADF044000061F8EC581700AFD7
S11316D480FBBDF0301CFBB800301620B802ADF01E
S11316E4B804301100B806FCE71400ADF04400005F
S11316F461F8EC241700AF88FDBDF044000061E8F4
S1131704EC241700E5A0FDAF88FDBDF0A6F0ADF014
S1131714BF88FD301CFBB800FCAD1400EC2F18008E
S1131724AF88FDBDF044000061F8EC2F1800F5A06B
S1131734FD301CFBB800FCAD1400303220B800307E
S11317442700B802FCD40600F6BF82FBF6BF88FD6E
S1131754EC2F1800AF80FBBDF0301CFBB800300C3C
S113176420B802ADF0B804300600B806FCE7140053
S1131774ADF044000061E8ECA61700AF80FBBDF0B7
S1131784301CFBB800301220B802ADF0B8043004A9
S113179400B806FCE71400ADF044000061F8EC2F37
S11317A41800F5A0FDAF80FBBDF0301CFBB8003081
S11317B40220B802ADF0B804300500B806FCE71402
S11317C400ADF044000061F8EC2F18008FA1FD9DDA
S11317D4F0D4F061F8ECE11700F6BF8AFBF5A1FD43
S11317E4F6BFB2FDEC191800AFB2FDBDF0AF84FB37
S11317F4BDF4AFB2FDBDF2ADF406F2BDF2041CFBC0
S1131804168B9DF2DAF04800F9AFB2FDBDF0A6F0F4
S1131814ADF0BFB2FDAFB2FDBDF044120071FF6183
S1131824E3ECEC1700E5A4FDF5A6FDAF82FBBDF0E7
S113183444000061F8EC9C18008FA0FD9DF0D4F0E6
S113184461F8EC9C1800AF88FDBDF044010061E828
S1131854EC751800F6BF8CFBF5A0FD300BFBB8004B
S1131864301000B802FCD40600F6BF82FBEC9C18CE
S113187400AF88FDBDF044020061E8EC9C1800F65A
S1131884BF8CFBF5A0FD3017F9B80030F401B802A1
S1131894FCD40600F6BF82FB1008D7A118CBF8DCF1
S11318A4FE410061CF34D8003600F961DF3600F917
S11318B4301CFB27311E440000DD0EB161CF11A999
S11318C4BBA5A5A7A761DFEFED61CF361CFB3000F4
S11318D40061DF30B8FD27311E440000DD0AB16128
S11318E4CFBBA7A761DFEFF161CFFCC40C000030CC
S11318F40000C1C1C1FCD50C00EFFE51C09FE8003B
S1131904F6BEF4BEF2A806BEF671FCDC18A8047197
S1131914FCBEF0DC2A51C19FE8008FE8003103FAD1
S1131924AEF0BDF0D7AFF6FF12F623BEF6A80471ED
S1131934FCBEF0DE12AFF0FF12F623BEF0EFD6AF1A
S1131944F0FF12F623BEF051C19FE8008FE8003186
S113195403FAAFF0FF12F623BDF0D751C09FE8009D
S1131964F6BEF4BEF2A806BEF671FCDC19A8047136
S1131974FCBEF0DC2B51C19FE8008FE8003103FA70
S1131984AFE000BDF0D7AFF6FF12F623BEF6A8040D
S113199471FCBEF0DEDFAFF0FF12F623BEF0EF08F9
S11319A4AFF0FF12F623BEF051C19FE8008FE800A8
S11319B43103FAAFE00012F623BDF0D751C09FE81B
S11319C400A804BEF0A806BEF6F6BEF2BEF451C1E9
S11319D49FE8008FE8003103FAAFF0FFBDF0D75160
S11319E4C09FE800A804BEF0A806BEF6F6BEF2BE88
S11319F4F451C19FE8008FE8003103FAAFE000BD61
S1051A04F0D715
S11320004F4B74696D653D4552524F52434C4F538B
S113201045444641494C414C524541445920434F63
S11320204E4E45435445445749464920474F542052
S1132030495041542B43495053544152543D225426
S11320404350222C223139322E3136382E302E3163
S10C20503031222C38300D0A0055
S90318A143
